:020000040800F2
:1000000008260020A1010008672100080D1F000834
:10001000652100088D030008D128000800000000B9
:10002000000000000000000000000000692300083C
:100030009D03000800000000692100086D230008EE
:10004000BB010008BB010008BB010008BB010008A0
:10005000BB010008BB010008BB010008BB01000890
:10006000BB010008BB010008BB01000891030008A8
:10007000BB010008BB010008BB010008BB01000870
:10008000BB010008BB010008BB010008BB01000860
:10009000BB010008BB010008BB010008BB01000850
:1000A000BB010008BB010008BB010008BB01000840
:1000B000BB0100080000000000000000BB010008B8
:1000C000BB010008BB010008BB010008BB01000820
:1000D000BB010008BB010008BB010008BB01000810
:1000E000BB010008BB010008000000000000000088
:1000F0000000000000000000000000000000000000
:1001000000000000BB01000800000000BB01000867
:100110000000000000000000BB010008BB01000857
:10012000BB010008BB010008BB010008BB010008BF
:10013000BB010008000000000000000000000000FB
:10014000BB010008BB010008BB0100080000000063
:10015000BB010008BB010008611F0008BB010008CB
:10016000BB010008BB010008BB0100080000000043
:10017000BB010008BB0100080000000000000000F7
:10018000BB010008BB010008BB010008DFF80CD070
:1001900000F090F800480047D92E000808260020FB
:1001A0000648804706480047FEE7FEE7FEE7FEE711
:1001B000FEE7FEE7FEE7FEE7FEE7FEE7192400089C
:1001C0008D0100082DE9F05F0546002092469B4610
:1001D00088460646814640241BE02846414647465D
:1001E000224600F056F853465A46C01A914110D3A1
:1001F00011461846224600F03DF82D1A67EB01081B
:100200004F4622460120002100F034F817EB000988
:100210004E41201EA4F10104DFDC484631462A4647
:10022000434600F000B830BCBDE8C09F40EA01037F
:100230009B0703D009E008C9121F08C0042AFAD29C
:1002400003E011F8013B00F8013B521EF9D2704760
:10025000D2B201E000F8012B491EFBD27047002208
:10026000F6E710B513460A4604461946FFF7F0FFB5
:10027000204610BD202A04DB203A00FA02F10020BB
:1002800070479140C2F1200320FA03F319439040D4
:100290007047202A04DB203A21FA02F0002170473F
:1002A00021FA02F3D040C2F12002914008431946DE
:1002B00070470000064C074D06E0E06840F001037F
:1002C00094E8070098471034AC42F6D3FFF762FF7A
:1002D000B02F0008D02F000870B58C1810F8015B03
:1002E00015F0070301D110F8013B2A1106D110F8CF
:1002F000012B03E010F8016B01F8016B5B1EF9D1D3
:100300002B0705D40023521E0DD401F8013BFAE758
:1003100010F8013BCB1A921C03E013F8015B01F8C3
:10032000015B521EF9D5A142D8D3002070BD000058
:1003300010B586B00446142101A8FFF790FF0021F4
:1003400004220C4B012C0BD001920320029003914C
:10035000049101A9184600F00BFE06B0002010BD64
:100360000192012002900391049101A9184600F026
:10037000FFFDF2E70008004810B50421024800F034
:10038000D3FE002010BD000000080048FEE700007A
:10039000014800F01DBC000068050020704772B6DF
:1003A000FEE70000144A107F1449012801D00328F9
:1003B0000FD10B6823F400730B600B6843F40063E8
:1003C0000B600B6823F400630B600B6843F400734D
:1003D0000B60022801D003280BD1086840F480503C
:1003E0000860086820F480500860086840F4806065
:1003F000086000201077704724040020002002408D
:1004000007B506E00098006801C10098001D009043
:10041000121F002AF6D100200EBD0000C1070548BA
:1004200003D0416941F004014161416941F48031E7
:10043000416170470020024008494A69C0B222F475
:100440007E7242EAC0004861486940F0020048619B
:10045000486940F480304861704700000020024045
:1004600010B505494C6944F001044C610260BFF3CA
:100470006F8F436010BD00000020024010B5402285
:10048000084B5C6944F480245C61EFF3108372B61E
:1004900010C910C0521ED2B2002AF9D183F31088BD
:1004A00010BD00000020024070B5044600F04AFE76
:1004B0000546154E08E0601C06D000F043FE401BC8
:1004C000A04201D3032070BD3069C003F3D430696A
:1004D0000E49084088B10E494A6802434A60810FBC
:1004E00004D0B16900F040421143B161810002D0F3
:1004F00020F040403061012070BD3069C00701D05C
:1005000001203061002070BD00200240FAC30200CB
:10051000240400200120704710B50F494FF48024B7
:100520000968CB431A04120C09D00A04920902F19B
:100530000062824205D9A0F10060C00A10BD2246C7
:10054000F5E71A04120C01D009048C09001BA0F174
:100550000060C00A10BD0000E075FF1F2DE9F84FD4
:1005600004460D46002600270097DFF8BC9394F858
:100570005000012811D04FF0010884F85080206805
:1005800001F0D3FC58B1606D40F020006065012699
:1005900084F85070304600F0DBB90220FBE7686851
:1005A000052808D8022825D0032825D0042825D0DE
:1005B000052825D0062021682A6800F4407301EB45
:1005C00093110B6B00F01F004FF01F0C0CFA00FC96
:1005D000C2F3846223EA0C03824013430B63206856
:1005E00001F0A3FC8246206801F097FC5AEA000A59
:1005F00009D096E00C20DEE71220DCE71820DAE7CD
:100600004FF48070D7E7AA682968206801F091FC50
:1006100020686A69C168C1F3C10149008A4029693B
:1006200004290FD02B6800EB8100016EDFF8FCC2BB
:1006300003F0F84301EA0C011343194341F0004170
:1006400001666EE0002101F062FC40036ED00021E3
:10065000206801F05CFC90FAA0F0B0FA80F1286804
:1006600042036AD090FAA0F0B0FA80F0814204D13F
:1006700000221146206801F06BFC0121206801F086
:1006800046FC40035CD00121206801F040FC90FA58
:10069000A0F0B0FA80F12868420358D090FAA0F098
:1006A000B0FA80F0814204D100220121206801F0DB
:1006B0004FFC0221206801F02AFC40034AD00221AD
:1006C000206801F024FC90FAA0F0B0FA80F12868CC
:1006D000420346D090FAA0F0B0FA80F0814204D1F3
:1006E00000220221206801F033FC0321206801F080
:1006F0000EFC400338D00321206801F008FC90FA7A
:10070000A0F0B0FA80F12868420334D090FAA0F04B
:10071000B0FA80F0814204D100220321206801F068
:1007200017FC206801F0FDFB40B3B0E00021206819
:1007300001F0EDFBC0F3846191E7C0F3846095E7BD
:100740000121206801F0E3FBC0F38461A3E7C0F35B
:100750008460A7E70221206801F0D9FBC0F384611F
:10076000B5E7C0F38460B9E70321206801F0CFFB4F
:10077000C0F38461C7E7C0F38460CBE720682A7BBD
:10078000296850F8B03FC1F3120C23EA0C0302F0C1
:10079000180C674A22FA0CF20A4013430360E86817
:1007A000484574D12868410319D090FAA0F1B1FAF4
:1007B00081F1491C01F01F01092931D841030029A9
:1007C00010D090FAA0F1B1FA81F101F1010101F02C
:1007D0001F0108FA01F808D1C0F3846109E0C0F3F1
:1007E0008461E6E7C0F38461EFE790FAA0F1B1FA23
:1007F00081F101F1010101F01F0148EA816102D19B
:10080000C0F3846003E090FAA0F0B0FA80F000F149
:10081000010000F01F0000EB400041EA005132E00F
:100820004FEA403100290DD090FAA0F1B1FA81F1E0
:1008300001F1010101F01F0108FA01F805D1C0F32F
:10084000846106E0C0F38461F2E790FAA0F1B1FAA6
:1008500081F101F1010101F01F0148EA816102D13A
:10086000C0F3846003E090FAA0F0B0FA80F000F1E9
:10087000010000F01F00A0F10A0000EB400041EA77
:10088000005040F00071AA68206801F052FB29482E
:10089000296801423FF47CAE274A906800F0E0707E
:1008A000264D274BA9421ED105021CD4216899422E
:1008B0007FF46EAE40F40000916821F0E0710143D6
:1008C0009160204820490068B0FBF1F0401C00EB2B
:1008D00040008000009002E00098401E00900098C8
:1008E0000028F9D154E6194DA9420CD1C5010AD40A
:1008F00021689942F6D140F08070916821F0E07152
:100900000143916044E66FF00045E942EAD14102BB
:10091000E8D421689942E5D140F48000916821F043
:10092000E0710143916033E600007F4000F0FF0377
:10093000FFFF07000000088000030450000052C7BA
:100940000000045044040020400D0300000084CB4C
:1009500018BCBDE8E08F0000F8B50446002500266D
:100960000096002C02D0606D10B107E00120F8BDA8
:10097000204600F0C9F8A66584F8506020688168B8
:10098000C1F3407119B18168584A114081602068F3
:100990008168C1F30071A1B98168554A114041F0E5
:1009A00080518160534854490068B0FBF1F0401C0D
:1009B0004000009002E00098401E0090009800283F
:1009C000F9D120688168C1F3007141B9616D41F0CE
:1009D00010016165A16D41F00101A165012501F0E2
:1009E000A4FA616DC90600D430B1606D40F010000A
:1009F000606501252846F8BD606D20F4807040F0E8
:100A000002006065206801F08CFA58B93B488068A4
:100A1000C0F3000030B9606839498A6822F47C125A
:100A200002438A60E168606B627E0843A16841EA24
:100A30004231084394F8201040EA0140012903D1D3
:100A4000A18C491E40EA4140A16A29B101F47071AC
:100A5000E26A014342EA01002168CA68294B1A4050
:100A60000243CA60206801F058FAA8B9207E94F8C1
:100A70003010800340EA41012068C26844F202035A
:100A80009A430A43C26094F83800012813D02068C2
:100A9000016921F001010161206901281CD0206851
:100AA000016B21F00F010163606D20F0020040F046
:100AB000010060659EE7D4E90F100143D4E91102FB
:100AC000104301432068026940F2FC739A431143CA
:100AD00041F001010161DFE72068016BE26921F06B
:100AE0000F01521E11430163DEE70000C0FFFF5FEC
:100AF000C0FFFF7F44040020400D030000000450AD
:100B00000003045007C0F0FF70B59EB006461421E4
:100B100019A8FFF7A4FB5C2102A8FFF7A0FB284956
:100B20003068884249D14FF480400290800316908B
:100B300003200390012004900820059007200690D0
:100B40000224079408948801099002A800F0E0FBB1
:100B500008B1FFF724FC1B49C86C40F40050C8647E
:100B6000C86C00F400500190C86C40F00100C864EB
:100B7000C86C00F00100019019940B201A90002518
:100B80001B9519A94FF0904000F0F2F90F4C0E4858
:100B900020606560A560E5608020206140006061A4
:100BA0008000A0612020E0612562204600F076F8F8
:100BB00008B1FFF7F4FBF464A6621EB070BD00003C
:100BC00000000450001002400800024068050020A8
:100BD000F0B4016C0A6801680B6890F84440042680
:100BE00004F01C0406FA04F5154215D05D0713D570
:100BF0000A68920603D40A6822F004020A6090F898
:100C0000441001F01C0106FA01F5016C4D60016B06
:100C1000002941D0F0BC08474FF0020C0CFA04F652
:100C200016424FF000074FF0010519D09E0717D567
:100C30000A68920605D40A6822F00A020A6080F85F
:100C4000255090F8441001F01C010CFA01F6016CDB
:100C50004E6080F82470C16A00291DD0F0BC08479E
:100C60000826A640164217D01A0715D50A6822F0A2
:100C70000E020A6090F84410026C01F01C0105FAA3
:100C800001F15160C56380F8255080F82470416BF4
:100C9000002901D0F0BC0847F0BC704770B50028AF
:100CA0000DD0334C01681423324AA14209D2324C90
:100CB0000C44B4FBF3F39B00436402640BE001209B
:100CC00070BD2B4C64420C44B4FBF3F39B004364B3
:100CD000274B083B0364022380F825300B6847F656
:100CE000F074A343D0E902452C43D0E904563543C0
:100CF0002C4385692C43C5692C43056A2C431C434E
:100D00000C608168B1F5804F29D0016C0F239142AE
:100D100012D152F8A81F90F8444004F01C04A340DC
:100D20009943116090F84430416803F01C039940E6
:100D300013681943116012E00D49A0310A6890F858
:100D4000444004F01C04A3409A430A6090F84430E5
:100D5000426803F01C039A400B681A430A600021A2
:100D600024308161012242700170002070BD0000BA
:100D70000804024000000240F8FFFDBF2DE9F05FCB
:100D800004468846384F387801280BD001253D703D
:100D90004CF2503B5846FFF787FB06464FF0000ADF
:100DA0001EB15DE0022000F063B8C7F804A0DFF8D0
:100DB000BC90D9F8000080050ED5D9F80000400598
:100DC00008D5D9F8000020F48060C9F8000003209D
:100DD000387710E03D770EE0D9F80000400508D5DF
:100DE000D9F8000020F48060C9F8000002203877AC
:100DF00001E087F81CA02068012807D04FF0FF30E1
:100E0000C8F80000A56840F2FA3B22E06068FFF7EE
:100E100005FB5846FFF748FB0646D9F8140020F0BA
:100E20000400C9F8140019E028466168FFF704FBC4
:100E30004CF25030FFF738FB0646D9F8140020EA90
:100E40000B00C9F81400300002D0C8F8005005E0CB
:100E50006D1CD4E902010844A842E5D8FFF7A2FAC4
:100E600087F800A030469EE72404002000200240BE
:100E700030BCBDE8C09F00000348416941F000411B
:100E80004161002070470000002002402DE9FF5F13
:100E9000074614461D460026DFF89C9099F800008E
:100EA00001280CD0012089F800004CF25030FFF7E7
:100EB000FBFA8046B346B8F1000F04D038E00220B8
:100EC00004B000F03DB8C9F804B0DFF870A0DAF85B
:100ED0000000400509D5DAF8000020F48060CAF867
:100EE0000000022089F81C0001E089F81CB027B13D
:100EF000012F09D0022F07D00DE022462B46019882
:100F0000FFF7AEFA012606E021460198FFF7B6FA90
:100F1000022F00D17E044CF25030FFF7C5FA804614
:100F200026B1DAF81400B043CAF81400FFF73AFA11
:100F300089F800B04046C3E72404002000200240A6
:100F400030BCBDE8C09F0000002006494A69002A65
:100F500007DA054A8A60054A8A604969002900DA89
:100F6000012070470020024023016745AB89EFCD87
:100F70002DE9F84F0022DFF880914FF00108032798
:100F80004FF00F0C09F1040AA9F1040BACE008FAC8
:100F900002F52B40002B72D00C7904F00304012CD5
:100FA00001D0022C15D18668540007FA04FE26EA07
:100FB0000E06D1F80CE00EFA04FE4EEA060EC0F85A
:100FC00008E04468AC430D79C5F30015954025430E
:100FD00045600C79E443A40708D0C568540007FABB
:100FE00004F6B5438E68A6402E43C6600C7904F023
:100FF0000304022C11D1D40800EB8406356A54078F
:10100000E40E0CFA04FE25EA0E05D1F810E00EFA03
:1010100004FE4EEA050EC6F820E00568540007FA03
:1010200004F6B5430E7906F00306A6402E4306608B
:101030004C6814F4403F56D0304C256E45F0010505
:101040002566246E04F0010400942D4C22F0030563
:101050002E19B56894074FEA147E0CFA0EF4A543D6
:10106000B0F1904F04D0274CA04203D1012412E0EC
:10107000002410E0244CA04202D102240BE032E014
:10108000224CA04201D1032405E0214CA04201D111
:10109000042400E0072404FA0EF42C43B460D9F8C9
:1010A00000409C434D68ED0200D51C43C9F8004048
:1010B000DAF800409C434D68AD0200D51C43CAF8E5
:1010C0000040DBF800409C434D68AD0300D51C4355
:1010D000CBF80040084D083D2C689C434E68F60351
:1010E00000D51C432C60521C0B6833FA02F47FF4C9
:1010F0004EAF00F00FB8000008040140001002409D
:10110000000001400004004800080048000C0048AE
:101110000010004818BCBDE8E08F0069084201D00B
:101120000120704700207047426921EA02030A400B
:1011300043EA024181617047002A01D08161704712
:1011400081627047014880687047000018040020E1
:1011500002488168027811448160704718040020B9
:1011600010B50024032000F075F80F2000F008F8F7
:1011700008B1012401E000F029F8204610BD00006C
:1011800070B5054600240F4E3078002817D04FF474
:101190007A71B1FBF0F00C490968B1FBF0F000F096
:1011A00025FE08B101240BE0102D06D200222946AD
:1011B000501E00F02FF8756002E0012400E00124C9
:1011C000204670BD180400204404002008B50948DA
:1011D000016E41F001010166016E01F00101009113
:1011E000816D41F080518165806D00F080500090EC
:1011F00008BD000000100240002809DB00F01F02BB
:10120000012191404009800000F1E020C0F8001168
:1012100070470000F0B40D460D4B1B68C3F302236A
:10122000C3F10704042C00D90424191D072901D295
:10123000002300E0DB1E012606FA04F1491E2940C6
:1012400099409E40761E16403143F0BC01F041BBF0
:101250000CED00E000F00701054A10684FF6FF03AF
:10126000184040EA0120034908431060704700001D
:101270000CED00E00000FA051749B0F5007F0CD036
:101280000868C0F34120022805D0086820F4C06037
:1012900040F480600860002070470868C0F3412077
:1012A0000128F8D0086820F4C06040F4007008609D
:1012B0000A48322200685043094AB0FBF2F0401C51
:1012C00000E0401E4A69520501D50028F9D148695D
:1012D0004005E0D503207047007000404404002022
:1012E00040420F000248006800F4C06070470000F0
:1012F00000700040054AD36800F01F018B4343EAA9
:101300005010D060906808439060704700700040B3
:101310002DE9F84F0446002500272088A54E00053A
:101320000AD5606C58B3B0F5000F23D0B0F5400F6C
:1013300000D001254DB32F46206880037AD54FF0A9
:101340000008B06DC00009D4B06D40F08050B065A9
:10135000B06D00F0805000904FF00108DFF858A207
:10136000DAF8000040F48070CAF80000FFF7EAFEE7
:1013700081461BE0F06840F48030F060DAE700213D
:10138000201D00F00FFF0546D4E7D6F88800616CF9
:1013900020F440000843C6F88800CDE7FFF7D2FEEE
:1013A000A0EB0900022801D9032503E0DAF80000C8
:1013B000C005F3D525B12F46B8F1010F36D039E07D
:1013C000D6F8900000F4407080B1A16D81420DD03C
:1013D00056F8900F20F44070316841F4803131604C
:1013E000316821F48031316046F89009C00711D08E
:1013F000FFF7A8FE814641F2883A07E0FFF7A2FE18
:10140000A0EB0900504501D9032503E0D6F8900070
:101410008007F3D50DB12F46CEE7D6F89000A16D29
:1014200020F440700843C6F89000C5E7B06D20F086
:101430008050B0652078C00707D0D6F88800216AB0
:1014400020F003000843C6F888002078800707D5FD
:10145000D6F88800616A20F00C000843C6F88800BE
:101460002078400707D5D6F88800A16A20F0300020
:101470000843C6F888002078800607D5D6F888008B
:10148000E16A20F440600843C6F88800208880059F
:1014900007D5D6F88800E16B20F440200843C6F851
:1014A00088002088400507D5D6F88800216C20F4F4
:1014B00040100843C6F888002078400607D5D6F8C3
:1014C0008800216B20F440500843C6F8880020783B
:1014D000000607D5D6F88800616B20F44040084329
:1014E000C6F888002088C00507D5D6F88800A16B0B
:1014F00020F440300843C6F8880020684FF00065AB
:1015000000034FF0806817D5D6F88800A16C20F052
:1015100040600843C6F88800A06CA84204D1F06877
:1015200040F48010F06007E0404505D10121201D06
:1015300000F038FE00B107462068400317D5D6F802
:101540008800E16C20F040600843C6F88800E06C39
:10155000A84204D1F06840F48010F06007E04045F4
:1015600005D10121201D00F01DFE00B10746208895
:10157000400411D5D6F88800216D20F04050084372
:10158000C6F88800206DB0F1805F05D10221201DD2
:1015900000F008FE00B107462088000406D556F882
:1015A000880F616D20F0804008433060384600F0BD
:1015B00005B80000001002400070004018BCBDE8F3
:1015C000E08F00002DE9F04704460D46002C17D0AF
:1015D000DFF84C81D8F8000000F00700A84211D2D3
:1015E000D8F8000020F007002843C8F80000D8F819
:1015F000000000F00700A84204D00120BDE8F087F9
:101600000120FBE72078474E80070AD5A068B16823
:1016100001F0F001884204D9B16821F0F0010143E2
:10162000B1602078C00732D06068032807D0022854
:101630000AD070B13168490510D40120DEE7316865
:1016400089010BD40120D9E73168890306D4012030
:10165000D4E73168890701D40120CFE7B16821F0D0
:1016600003010143B160FFF76DFD074641F2883980
:1016700006E0FFF767FDC01B484501D90320BDE721
:10168000B068616800F00C00B0EB810FF1D12078F8
:1016900080070AD5A068B16801F0F001884204D241
:1016A000B16821F0F0010143B160D8F8000000F00A
:1016B0000700A8420ED9D8F8000020F00700284300
:1016C000C8F80000D8F8000000F00700A84201D0D8
:1016D000012093E72078400705D5B068E16820F441
:1016E000E0600843B0602078000706D5B068216943
:1016F00020F4605040EAC100B06000F045F8B168E5
:10170000094AC1F30311515C01F01F01C8400749A8
:10171000086007480068BDE8F047FFF731BD0000EA
:101720000020024000100240682F000844040020FE
:101730001C04002001480068704700004404002099
:1017400000B5FFF7F7FF05498968054AC1F3022193
:10175000515C01F01F01C84000BD000000100240B4
:10176000A82F000800B5FFF7E5FF05498968054A7D
:10177000C1F3C221515C01F01F01C84000BD00004F
:1017800000100240A82F000870B500220020244B52
:10179000996801F00C01DC6804F00304214D6E101F
:1017A000002908D00C2901D1012C04D0042913D020
:1017B000082913D013E01A68120704D4D3F8942030
:1017C000C2F3032202E01A68C2F30312164C54F863
:1017D000222021B9104602E0284600E030460C29BC
:1017E00018D1D86800F00300022814D0032814D0C0
:1017F0001046D968C1F30211491CDA68C2F3062207
:101800004243B2FBF1F0D968C1F34161491C490080
:10181000B0FBF1F070BD2846EBE73046E9E7000089
:10182000001002400024F400782F00082DE9F8434E
:101830000446002C0DD0FA4EB06800F00C05F0689C
:1018400000F003072078C0066AD595B10C2D03D0AF
:1018500004E00120BDE8F883012F0AD0A069002828
:101860007DD0306840F001003060FFF76BFC8046AF
:101870005FE03068800701D5A06938B1206A31681F
:10188000090705D5316801F0F00106E00120E1E724
:10189000D6F8941001F470610909884216D900F055
:1018A00021FD08B10120D5E7306840F00800306024
:1018B0003068216A20F0F000084330607068E16908
:1018C00020F47F4040EA0120706017E0306840F06B
:1018D000080030603068216A20F0F0000843306072
:1018E0007068E16920F47F4040EA012070602DB902
:1018F000206A00F0F7FC08B10120ABE7FFF744FFD6
:10190000B168C84AC1F30311515C01F01F01C8401E
:10191000C5490860C5480068FFF732FC002899D126
:1019200030E0FFF70FFCA0EB0800022801D90320EC
:1019300090E730688007F4D5306840F008003060E8
:101940003068216A20F0F000084330607068E16977
:1019500020F47F4040EA0120706013E0FFE7306828
:1019600020F001003060FFF7EDFB804607E0FFF755
:10197000E9FBA0EB0800022801D903206AE73068E0
:101980008007F4D42078C0074AD0082D18D00C2D39
:1019900001D1032F14D06068B0F5803F17D0B0F5A7
:1019A000A02F19D0306820F480303060306820F4E7
:1019B00080203060606820B3FFF7C4FB80461CE0E5
:1019C000306880032CD5606850BB012042E7306846
:1019D00040F480303060EDE7306840F480203060C3
:1019E000306840F480303060E4E7FFF7ABFBA0EBF9
:1019F0000800642801D903202CE730688003F4D55F
:101A00000EE0FFF79FFB804607E0FFF79BFBA0EB94
:101A10000800642801D903201CE730688003F4D44F
:101A20002078800742D5042D0DD00C2D01D1022F36
:101A300009D0E06840B3306840F480703060FFF750
:101A400081FB074615E03068400501D5E06838B1F4
:101A50007068217C20F0F85040EA0160706025E059
:101A60000120F7E6FFF76EFBC01B022801D9032017
:101A7000F0E630684005F5D57068217C20F0F8501C
:101A800040EA0160706011E0306820F480703060DE
:101A9000FFF758FB074606E0FFF754FBC01B022880
:101AA00001D90320D6E630684005F5D42078000738
:101AB0002CD56069A8B1D6F8940040F00100C6F8B2
:101AC0009400FFF73FFB074606E0FFF73BFBC01B18
:101AD000022801D90320BDE6D6F894008007F4D58A
:101AE00014E0D6F8940020F00100C6F89400FFF747
:101AF00029FB074606E0FFF725FBC01B022801D99A
:101B00000320A7E6D6F894008007F4D42078400795
:101B100076D54FF00008B06DC00009D4B06D40F02C
:101B20008050B065B06D00F0805000904FF001081B
:101B3000DFF8FC90D9F80000C00514D4D9F80000F3
:101B400040F48070C9F80000FFF7FCFA074606E091
:101B5000FFF7F8FAC01B022801D903207AE6D9F86A
:101B60000000C005F4D5A068012813D0052818D0BE
:101B700056F8900F20F001003060306820F004002B
:101B800046F89009A06841F2883710B3FFF7DAFAF7
:101B9000814619E0D6F8900040F00100C6F89000A8
:101BA000F0E756F8900F40F004003060306840F0E5
:101BB000010046F89009E5E7FFF7C4FAA0EB090039
:101BC000B84201D9032045E6D6F890008007F3D546
:101BD0000FE0FFF7B7FA814607E0FFF7B3FAA0EB93
:101BE0000900B84201D9032034E6D6F890008007F6
:101BF000F3D4B8F1010F03D1B06D20F08050B0657F
:101C00002078800637D5606A00B3D6F8980040F097
:101C10000100C6F89800FFF795FA074611E00000AA
:101C200000100240682F0008440400201C0400201B
:101C300000700040FFF786FAC01B022801D903207C
:101C400008E6D6F898008007F4D514E0D6F8980096
:101C500020F00100C6F89800FFF774FA074606E086
:101C6000FFF770FAC01B022801D90320F2E5D6F86D
:101C700098008007F4D4A06AF0B3022809D00C2D94
:101C800076D0306820F080703060FFF75BFA044651
:101C90009DE0F068E26A00F003014FF0FF379142E7
:101CA00024D1216B00F07002491EB2EB011F1DD13F
:101CB000626B00F4FE41B1EB022F17D194F838208B
:101CC00000F07841B1EBC26F10D1A28F00F4C001D7
:101CD00007EB5202B1EB425F08D194F8401000F0DC
:101CE000C06007EB5101B0EB416F4FD00C2D4BD0D2
:101CF0003068400103D500E061E00120AAE53068CA
:101D000020F080703060FFF71DFA054606E0FFF70F
:101D100019FA401B022801D903209BE53068800195
:101D2000F5D454F82C1F6068228A401E41EA001046
:101D3000A16807EB5202090241EA42510843217DA2
:101D400007EB510140EA4160217B40EAC160F16844
:101D5000244A11400843F060306840F080703060E1
:101D6000F06840F08070F060FFF7ECF9044607E09F
:101D700036E0FFF7E7F9001B022801D9032069E5E7
:101D800030688001F5D529E0012063E530688001E5
:101D900024D4306840F080703060F06840F080708B
:101DA000F060FFF7CFF9044606E0FFF7CBF9001B20
:101DB000022801D903204DE530688001F5D50DE0FA
:101DC000FFF7C0F9001B022801D9032042E5306863
:101DD0008001F5D4F06804490840F060002039E53E
:101DE000012037E58C809D01FCFFEEFE10B5401E02
:101DF000B0F1807F01D3012010BD4FF0E02460617D
:101E00000F21601700F065FD0020A0610720206110
:101E1000002010BD10B50446002C02D0E06F10B1B8
:101E200007E0012010BD002084F87800204600F073
:101E300027F82420E0672068016821F00101016093
:101E4000606A10B1204600F0EFFA204600F0CCFBAB
:101E5000012813D02068416821F490414160206836
:101E6000816821F02A0181602068016841F0010148
:101E700001602046BDE8104000F03ABB012010BDD3
:101E800010B59EB00446142119A8FEF7E8F95C21AC
:101E900002A8FEF7E4F91B492068884230D12020CF
:101EA000029000240D9402A8FFF732FA08B1FEF761
:101EB00076FA1548C16D41F00101C165C16D01F0AF
:101EC00001010191C16C41F00101C164C06C00F0DD
:101ED000010001900C20199002201A901B940320FD
:101EE0001C9008201D9019A94FF09040FFF740F872
:101EF000002211464620FFF78DF94620FFF77CF9B6
:101F00001EB010BD0080004000100240FEE700EB54
:101F10008100006E00F0F84070478068C0F3C00098
:101F200070478068C0F3000070478068C0F380008D
:101F3000704710B501F0007300EBD3504369C1F353
:101F4000045107248C40A3438A401343436110BDCE
:101F500000EB8100016E21F00041114301667047E2
:101F600038B50F4C2068C169C943890609D4808CF3
:101F7000009069460B4800F0F8F8216820200862BC
:101F800038BD102101622168082008622168042000
:101F9000086221680220086221680120086238BDB9
:101FA000E0040020C805002010B586B0182168465E
:101FB000FEF755F91948184901604FF400214160B6
:101FC00000248460C4600461082141610476012119
:101FD0004176C16180F820408462C46280F830108C
:101FE000446380F83840FEF7B7FC08B1FEF7D7F934
:101FF0000B4800900620019002947F20039004205B
:102000000490059469460548FEF7A8FA002801D017
:10201000FEF7C5F906B010BD000004505C040020B6
:102020004000201908B50948816C41F00101816424
:10203000806C00F001000090002211460B20FFF799
:10204000E9F8BDE808400B20FFF7D6B800100240C1
:102050002DE9F04387B0142102A8FEF700F93048BB
:10206000C16C41F08001C164C16C01F0800101913B
:10207000C16C41F00101C164C16C01F00101019129
:10208000C16C41F00201C164C16C01F00201019117
:10209000C16C41F00401C164C06C00F00400019007
:1020A000204F00224FF440613846FFF745F8DFF833
:1020B00078800022C0214046FFF73EF84FF4C0660A
:1020C0004FF09049002231464846FFF735F840F678
:1020D000024002900125039500240494059402A96E
:1020E0003846FEF745FF4FF4347002900395049490
:1020F000059402A94046FEF73BFF0296039504941F
:10210000059402A94846FEF733FF68030290039442
:10211000049402A94046FEF72BFF07B0BDE8F08308
:1021200000100240000400480008004810B50C48A8
:102130000A4901604FF4E1314160C9048160002126
:10214000C16001610C224261816101624162FFF75D
:1021500061FE002801D0FEF722F910BD008000408A
:10216000E0040020FEE7FEE770472DE9F041044659
:102170006568A668E7686269206805FB0200FEF7EB
:1021800055F828466D1C2169A94200D80025B042A7
:1021900002DAB54200DB7F1C6560A660E7600020C4
:1021A000BDE8F0812DE9F041054688460024494EFE
:1021B000F068810728680ED0F16801F003018142C0
:1021C00007D130B1F0686968C0F30210401C884242
:1021D00025D0012423E0012806D0022809D00328B5
:1021E0000CD0012494B11AE031688907FAD4012493
:1021F000F8E731684905F5D40124F3E7316889032C
:10220000F0D431684903EDD40124EBE7F16821F003
:1022100073026968491E42EA01110143F16074BB0F
:10222000306820F080603060FEF78CFF074606E0E3
:10223000FEF788FFC01B022801D9032402E03068A2
:102240000001F5D4DCB9B8F1000F19D04FF0FF3020
:10225000B8F1010F1FD0A9682A7D090200EB5200D6
:1022600041EA406031691C4A1140084330613068DE
:1022700040F080603060FEF765FF07461FE026E013
:10228000A868297B000240EAC1603169134A114005
:1022900008433061EBE7A9682A8A090200EB520083
:1022A00041EA405031690E4A114008433061DEE78F
:1022B000FEF748FFC01B022801D9032402E0306862
:1022C0000001F5D51CB93069A96908433061204681
:1022D000BDE8F08100100240FF80FFF9FF80FF079A
:1022E000FF809FFFF8B5054600241D4EB06DC0006D
:1022F00002D5FEF7F7FF0DE0B06D40F08050B065FD
:10230000B06D00F080500090FEF7ECFFB16D21F051
:102310008051B165B0F5007F04D0802D0AD94FF00F
:1023200003040DE0802D0BD9A02D01D9022407E074
:10233000012405E001D1022402E0702D00D1012426
:102340000848016821F0070121430160006800F09E
:102350000700A04201D00120F8BD0020F8BD000018
:1023600000100240002002407047000010B5FEF748
:10237000EFFE0B49087A012811D10A4A0868126851
:1023800000F57A7090420AD8487A002210B10128EC
:1023900003D003E00120887200E08A720A7210BD47
:1023A000BC0500202004002010B596B0442105A8EB
:1023B000FDF755FF14216846FDF751FF4FF40070FB
:1023C000FEF75AFF08B1FDF7EAFF01210591080465
:1023D000069002200F900324109411911421129161
:1023E000072113911490159005A8FFF71FFA08B163
:1023F000FDF7D5FF0F20009001940020029003907C
:10240000049004216846FFF7DDF8002801D0FDF7AD
:10241000C6FF16B010BD00000248016841F470010B
:102420000160704788ED00E090F82410090706D598
:1024300001684A68436B22F400421A434A6090F8EC
:102440002410C90706D001684A68836A22F4003262
:102450001A434A6090F82410890706D501684A6833
:10246000C36A22F480321A434A6090F82410490764
:1024700006D501684A68036B22F480221A434A6039
:1024800090F82410C90606D501688A68836B22F487
:1024900080521A438A6090F82410890606D5016894
:1024A0008A68C36B22F400521A438A6090F82410A1
:1024B000490611D501684A68036C22F480121A4358
:1024C0004A60016CB1F5801F06D101684A68436C0F
:1024D00022F4C0021A434A6090F82410090606D577
:1024E00001684A68806C22F4002202434A60704707
:1024F0002DE9F84304460025C4F88450FEF722FE77
:102500008046206800684FF0200600076FF07E4785
:1025100016D54346002231042046009700F08CF97E
:1025200070B1206850E8001F21F0800140E80012DF
:10253000002AF6D1E66784F878500320BDE8F883D6
:1025400020680068400720D5434600224FF48001F0
:102550002046009700F070F9B8B1206850E8001FDD
:1025600021F4907140E80012002AF6D1206808306A
:1025700050E8001F21F0010140E80012002AF5D1C7
:102580007834A66025700320D8E76034E6612662BF
:102590002560656025760020D0E7016851E8002FAE
:1025A00022F4907241E80023002BF6D10168083133
:1025B00051E8002F22F0010241E80023002BF5D161
:1025C000016E012908D1016851E8002F22F01002A4
:1025D00041E80023002BF6D12021C0F88010002113
:1025E00001668166704700002DE9F0410446002530
:1025F000894B20682269A168E66911436269324308
:1026000011430268854E32400A43026020684168E7
:10261000E26821F4405111434160A0692168994268
:1026200001D0226A10438A6822F4306202438A6031
:102630007B4922687B488A4214D1D0F8880010F088
:10264000030007D0012809D0022805D0032807D0AD
:10265000102152E0012150E002214EE004214CE023
:1026600008214AE070498A4214D1D0F8880010F05D
:102670000C0007D0042809D0082805D00C2807D062
:1026800010213AE0002138E0022136E0042134E054
:10269000082132E065498A4214D1D0F8880010F050
:1026A000300007D0102809D0202805D0302807D0C6
:1026B000102122E0002120E002211EE004211CE084
:1026C00008211AE09A4217D1D0F8880010F440602F
:1026D0000AD0B0F5806F0BD0B0F5006F06D0B0F522
:1026E000406F07D0102108E0002106E0022104E03D
:1026F000042102E0082100E010214D4800264FF49B
:10270000004C9A422DD191B1022905D0042911D053
:10271000082912D00020012500B3626802EB4201B3
:10272000814202D8B0EB023F09D901256FE0FFF7E3
:1027300007F8F1E7FFF728F8EEE76046ECE7010E4F
:1027400003025008181871410023FDF73BFD394A78
:10275000A0F54071914202D82168C86057E0012578
:1027600055E0E2694FF6EF7762452BD1092911D286
:10277000DFE801F0050812100B1010100E00FEF734
:10278000DFFF09E0FEF7EEFF06E0FEF7FDFF03E0E6
:10279000604601E000200125B8B34100606801EB0C
:1027A0005001B1FBF0F0A0F11001B94208D84FF68A
:1027B000F0710140C0F3420001432068C16026E08F
:1027C000012524E0092911D2DFE801F005081210E3
:1027D0000B1010100E00FEF7B3FF09E0FEF7C2FF6A
:1027E00006E0FEF7D1FF03E0604601E0002001258E
:1027F00058B1616800EB5100B0FBF1F0A0F110019D
:10280000B94203D8216880B2C86000E00125A666FD
:10281000E6662846BDE8F08100800040F369FFEFDE
:1028200000380140001002400044004000480040D1
:102830000024F400FFFC0F002DE9F0470446089E39
:102840000D46174698464FF0000935E0701C33D00E
:10285000FEF778FCA0EB0800B04219D8C6B120689A
:102860000168490728D5802D26D0402D24D0C16984
:10287000C94309070ED42068082505622046FFF7E2
:102880008CFEC4F8845084F878900120BDE8F0876D
:102890000320FBE7C069C04300050DD421684FF455
:1028A000006008622046FFF778FE2020C4F884000C
:1028B00084F878900320E9E72068C06935EA0000D1
:1028C00004D00020B842C1D00020DFE70120F9E7A2
:1028D000FEE70907090E002804DB00F1E02080F87C
:1028E0000014704700F00F0000F1E02080F8141D84
:1028F000704702E008C8121F08C1002AFAD17047C9
:102900007047002001E001C1121F002AFBD170476F
:102910001CB569460F2000F001F900281BD19DF875
:10292000000020F08300009069460F2000F0FCF8C2
:10293000002810D101A90E2000F0F0F800280AD1DB
:102940009DF8040020F0030040F00400019001A96C
:102950000E2000F0E9F81CBDFFF7DABF2DE9F041C9
:1029600080460F4615461E46D024404600F050FAD9
:102970002146404600F022FA404600F077FA90B92E
:102980003946404600F01AFA404600F06FFA50B956
:10299000404600F03DFAD121404600F00FFA404693
:1029A00000F064FA28B1404600F04CFA0120BDE87E
:1029B000F0810024771E0EE0404600F055F92855BE
:1029C000BC4203D0404600F08AF802E0404600F0E6
:1029D00035F9641CE4B2B442EED3404600F032FA5A
:1029E0000020E4E72DE9F0410746884615461E46DB
:1029F000D024384600F026FA384600F009FA21467D
:102A0000384600F0DBF9384600F030FA88B9414624
:102A1000384600F0D3F9384600F028FA48B90024C7
:102A20000EE0295D384600F0C9F9384600F01EFA7C
:102A300028B1384600F006FA0120BDE8F081641C98
:102A4000B442EEDB384600F0FDF90020F5E7000067
:102A500070B586B005460026019611486C18844270
:102A600002D3012006B070BDFEF76EFA029628462A
:102A7000FDF750FD03902846FDF74EFD04902046DB
:102A8000FDF74AFD0499401A401C059001A902A8CF
:102A9000FEF774F908B10220E4E70020E2E7000045
:102AA000000004082DE9F04105460E461746FEF7E2
:102AB0004BFA00240CE0D5E9002331460020FEF754
:102AC000E5F910B10120BDE8F08108360835641C35
:102AD000B4EBD70FEFD3FEF7CFF90020F3E710B533
:102AE00004460021204600F031F900F012F80121DF
:102AF000204600F0D7F800F00CF80021204600F046
:102B0000D1F800F006F82046BDE81040012100F0A1
:102B10001DB90020401C3C28FCD370470A46012305
:102B200001460320FFF71ABF0A460123014603208E
:102B3000FFF758BF70B586B004463D4E0122022112
:102B40003046FEF7F9FA012211463046FEF7F4FA54
:102B500011200290002003900320049035490D15A8
:102B6000012C21D0022C41D0032C1BD1C86C40F089
:102B70000400C864C86C00F004000090C86C40F009
:102B80000400C864C86C00F00400009001200190AB
:102B900001A93046FEF7ECF90221019101A9304666
:102BA000FEF7E6F906B070BDC86C40F00100C864DD
:102BB000C86C00F001000090C86C40F00100C864CF
:102BC000C86C00F0010000904FF4007001904FF0CD
:102BD000904601A93046FEF7CBF9019501A9304690
:102BE000FEF7C6F9204600F02DF9DBE7C86C40F08F
:102BF0000200C864C86C00F002000090C86C40F08D
:102C00000200C864C86C00F00200009001950A4DF3
:102C100001A92846FEF7ACF94FF40060019001A924
:102C20002846FEF7A5F9204600F00CF9BAE70000A7
:102C300000080048001002400004004810B5044697
:102C40000121204600F082F8FFF763FF01212046B2
:102C500000F028F8FFF75DFF0021204600F022F881
:102C6000BDE81040FFF755BF70B5064600240025AB
:102C70006006040E0121304600F014F8FFF749FF0A
:102C8000304600F047F808B1641CE4B20021304639
:102C900000F008F8FFF73DFF6D1CEDB2082DE7D3FB
:102CA000204670BD01280CD002281AD003282BD151
:102CB0001648012924D0002926D100220121FEF73F
:102CC0003BBA4FF400734FF09040012905D0002922
:102CD0001AD100221946FEF72FBA01221946FEF733
:102CE0002BBA0B484FF48063012905D000290BD182
:102CF00000221946FEF720BA01221946FEF71CBA37
:102D000001221146FEF718BA70470000000800487B
:102D1000000400480146012907D002290BD00329ED
:102D20000ED102210748FEF7F8B94FF480614FF049
:102D30009040FEF7F2B94FF400610348FEF7EDB999
:102D400070470000000800480004004801280CD02B
:102D500002281AD003282BD11648012924D0002993
:102D600026D100220221FEF7E7B94FF480634FF02D
:102D70009040012905D000291AD100221946FEF7FA
:102D8000DBB901221946FEF7D7B90B484FF40063AF
:102D9000012905D000290BD100221946FEF7CCB934
:102DA00001221946FEF7C8B901220221FEF7C4B973
:102DB00070470000000800480004004870B506464F
:102DC0000D460024280604D501213046FFF7BEFF3A
:102DD00003E000213046FFF7B9FFFFF79AFE01211B
:102DE0003046FFF75FFFFFF794FE00213046FFF704
:102DF00059FF072C03D101213046FFF7A7FF6806D2
:102E0000050EFFF786FE641CE4B2082CDAD370BD11
:102E100010B5044601212046FFF798FF0121204606
:102E2000FFF740FFFFF775FE00212046FFF78EFFFA
:102E3000FFF76FFE00212046FFF734FFBDE810408A
:102E4000FFF767BE10B5044600212046FFF77EFF5E
:102E500001212046FFF726FFFFF75BFE01212046F8
:102E6000FFF774FFBDE81040FFF753BE70B505468D
:102E700001212846FFF76AFFFFF74BFE0121284694
:102E8000FFF710FFFFF745FE2846FFF743FF08B1A5
:102E9000012400E0002400212846FFF703FFFFF78C
:102EA00038FE204670BD000010B508484FF480621F
:102EB0000749FFF7F7FD054C083C2070142205492F
:102EC0006068FDF79DFA607010BD000018000020DA
:102ED00000300008F4150020FEF742F9FFF764FA0D
:102EE000FFF7B6F8FFF79EF8FFF720F9FFF75CF859
:102EF0000120FFF71FFE0220FFF71CFE0320FFF753
:102F000019FE0020FDF714FA4FF480511248FFF724
:102F10009FFD12490870FFF7C7FF4220FEF7EAF94C
:102F20001020FEF7E7F9FFF717FD0D4CA0600D49E3
:102F300018B14FF48000086001E040200860094E9D
:102F40004FF40055183E29463046FEF7E6F820704B
:102F5000FDF712FAF7E70000003000080C0000202F
:102F600000000020180800480000000000000000D9
:102F70000102030406070809A0860100400D0300B2
:102F8000801A060000350C0040420F0080841E00AD
:102F900000093D0000127A000024F40000366E01A2
:102FA0000048E801006CDC0200000000010203049C
:102FB000D02F00080000002048040000D8020008BC
:102FC000EC2F000848040020C0210000022900085E
:102FD00001151230CB08310101FF01FF01FF01F49F
:0C2FE00032010A19101CD113093D000039
:040000050800018D61
:00000001FF
